:100000000C94BC000C94D9000C94D9000C94D90029
:100010000C94D9000C94D9000C94D9000C94D900FC
:100020000C94D9000C94D9000C94D9000C94D900EC
:100030000C94D9000C94DB000C94D9000C94D900DA
:100040000C94D9000C94D9000C94B2010C94E001EA
:100050000C94D9000C9403010C94D9000C94D90091
:100060000C94D9000C94D900500352035403560346
:1000700058035F0366036E616E00696E66000040A0
:100080007A10F35A00A0724E18090010A5D4E800A7
:1000900000E87648170000E40B54020000CA9A3BBF
:1000A000000000E1F5050000809698000000404245
:1000B0000F000000A08601000000102700000000D3
:1000C000E803000000006400000000000A000000D7
:1000D00000000100000000002C76D888DC674F0883
:1000E00023DFC1DFAE59E1B1B796E5E3E453C63A89
:1000F000E651997696E8E6C28426EB898C9B62ED00
:10010000407C6FFCEFBC9C9F40F2BAA56FA5F490B9
:10011000055A2AF75C936B6CF9676DC11BFCE0E430
:100120000D47FEF520E6B500D0ED902E0300943586
:1001300077050080841E080000204E0A000000C8D9
:100140000C333333330F986E12831141EF8D21142A
:10015000893BE65516CFFEE6DB18D1844B381BF7FA
:100160007C1D901DA4BBE424203284725E22810099
:10017000C9F124ECA1E53D2711241FBECFEFD8E043
:10018000DEBFCDBF11E0A0E0B1E0E4ECF5E102C0DC
:1001900005900D92A432B107D9F721E0A4E2B1E0B5
:1001A00001C01D92AF38B207E1F70E94AA030C9478
:1001B000E00A0C9400001F920F920FB60F921124C8
:1001C0008F93EF93FF93EAE7F0E080818064808370
:1001D000FF91EF918F910F900FBE0F901F90189588
:1001E000811104C080917C00807F0AC0813051F46D
:1001F00080917C00826080937C0080917C008E7F67
:1002000080937C0008951F920F920FB60F921124D5
:100210002F933F934F935F936F937F938F939F930E
:10022000AF93BF93EF93FF9380912C0190912D0199
:10023000892B91F580E00E94F000809178009091E8
:10024000790090932B0180932A019F938F9380E0F4
:1002500091E09F938F938BE791E09F938F930E9400
:10026000600A8BE791E00E94560283E091E00E94D1
:10027000560287E791E00E94560280912C019091EE
:100280002D01019690932D0180932C010F900F90DA
:100290000F900F900F900F9080912C0190912D0155
:1002A000019709F04EC081E00E94F0006091780053
:1002B000709179006F5F7F4F70932B0160932A01DB
:1002C00080E090E00E94EA0723E931E040EA5BE346
:1002D0000E9478080E94BB0780E090E00E94EA0735
:1002E00020E030E040E250E40E944E070E94BB074D
:1002F00070932901609328012091240130912501F8
:10030000CB01B9010E94E508709327016093260193
:100310008FE091E00E94560283E791E00E9456022E
:100320008BE191E00E94560287E791E00E9456021D
:1003300080912C0190912D01019790932D01809334
:100340002C01FF91EF91BF91AF919F918F917F9180
:100350006F915F914F913F912F910F900FBE0F9032
:100360001F9018951F920F920FB60F9211242F9382
:100370008F939F93EF93FF938091C0009091C6005D
:100380008C71E0913001EF5FEF7120912F01E21746
:1003900039F0E0933001F0E0ED5CFE4F908301C056
:1003A00082E090912E01892B80932E01FF91EF9195
:1003B0009F918F912F910F900FBE0F901F901895C6
:1003C0001F920F920FB60F9211248F939F93EF936A
:1003D000FF939091320180913101981769F0E0917B
:1003E0003101EF5FEF71E0933101F0E0ED5AFE4F24
:1003F00080818093C60005C08091C1008F7D80936D
:10040000C100FF91EF919F918F910F900FBE0F90C0
:100410001F90189510923201109231011092300104
:1004200010922F0197FF03C022E02093C000907824
:100430009093C5008093C40088E98093C10086E052
:100440008093C20008959091300180912F019817F8
:10045000A9F090912F019F5F9F71E92FF0E0ED5C73
:10046000FE4F208180912E0190932F0110922E013A
:1004700090E0982F8827820F911D089580E091E0E9
:100480000895909132019F5F9F71209131019217E1
:10049000E1F3E92FF0E0ED5AFE4F808390933201B3
:1004A0008091C10080628093C1000895CF93DF9353
:1004B000EC018991882319F00E944102FACFDF9163
:1004C000CF910895CF93DF93FC018491EF012196A2
:1004D000882321F00E944102FE01F7CFDF91CF91E6
:1004E0000895FC01408121E030E001C0220F6A95AF
:1004F000EAF7242B20830895FC01408121E030E0BD
:1005000001C0220F6A95EAF7342F3223308382919B
:100510002095282320830895FC01408121E030E0CC
:1005200001C0220F6A95EAF7342F322B3083829173
:100530002095282320830895FC01808121E030E06C
:1005400001C0220F6A95EAF7411103C020952823C4
:1005500001C0282B20830895FC01408121E030E078
:1005600001C0220F6A95EAF7242720830895FC0131
:10057000208181E090E0062E02C0880F991F0A9426
:10058000E2F730E08223932302C0959587956A9520
:10059000E2F70895811131C06330F9F050F4662319
:1005A00079F0613039F585B58B7F85BD85B5826081
:1005B0000FC0653041F06630E9F485B5846013C042
:1005C00085B58B7F10C085B5846085BD85B58D7F71
:1005D00085BD85B58E7F85BD089585B58B7F85BD2D
:1005E00085B5826003C085BD85B58D7F85BD85B528
:1005F0008160F1CF85B58B7FE8CF813009F044C0B1
:100600006330D1F068F4662399F0613069F5809128
:1006100081008B7F809381008091810082602CC05B
:10062000653099F0663001F580918100846011C0D9
:10063000809181008B7F0DC0809181008B7F8093A2
:10064000810080918100826009C080918100846076
:100650000EC080938100809181008D7F8093810006
:100660008091810081600DC0809181008B7F80939B
:100670008100809181008D7F809381008091810035
:100680008E7F809381000895862F90E087309105BA
:1006900048F5FC01EC5CFF4F8091B1000C94F90827
:1006A0008B7F07C08B7F0CC08B7F11C084601DC007
:1006B00084608093B1008091B1008D7F0DC0846013
:1006C0008093B1008091B100826014C084608093F7
:1006D000B1008091B10082608093B1008091B1003F
:1006E00081600DC08091B1008B7F8093B1008091BB
:1006F000B1008D7F8093B1008091B1008E7F809397
:10070000B100089581110CC080916E00662321F024
:10071000613011F4816001C08E7F80936E00089576
:10072000813061F480916F00662321F0613011F413
:10073000816001C08E7F80936F000895809170006A
:10074000662321F0613011F4816001C08E7F8093B7
:100750007000089580917C00806480937C0080917B
:100760007C008F7780937C0080917A0080688093F2
:100770007A0080917A00886080937A0080917A0074
:10078000876080937A0063E081E00E94CA0261E0A2
:1007900081E00E94820387E690E00E940A0278943A
:1007A000FFCFA0E1B0E0E7EDF3E00C94FF087C019F
:1007B0001B016A01FC0117821682838181FF44C3F9
:1007C0009E012F5F3F4F3901F7019381F10193FDA6
:1007D000859193FF81911F01882309F431C38532EC
:1007E00039F493FD859193FF81911F01853239F48E
:1007F000B70190E00E94240A56016501E5CF10E0A0
:10080000512C912CFFE1F915D8F08B3279F038F4A6
:10081000803279F08332A1F4F92DF0612EC08D324F
:1008200061F0803369F4292D21602DC0392D3260AB
:10083000932E892D8460982E2AC0E92DE86015C07A
:1008400097FC2DC020ED280F2A3088F496FE06C0B4
:100850003AE0139F200D1124122F19C08AE0589EF0
:10086000200D1124522EE92DE0629E2E10C08E32F2
:1008700031F496FCE5C2F92DF0649F2E08C08C3649
:1008800021F4292D2068922E02C0883641F4F1010E
:1008900093FD859193FF81911F018111B3CF9BEB54
:1008A000980F933020F4992D9061805E07C09BE9EA
:1008B000980F933008F066C1992D9F7E96FF16E041
:1008C0009F73992E853619F49064992E08C0863648
:1008D00021F4392F3068932E02C01111115097FE68
:1008E00007C01C3350F444244394410E27E00BC04E
:1008F000183038F027E017E005C027E09CE3492EC8
:1009000002C0212F412C560184E0A80EB11CF60133
:100910006081718182819381042DA3010E94360937
:100920006C01F981FC87F0FF02C0F3FF06C091FC67
:1009300006C092FE06C000E205C00DE203C00BE255
:1009400001C000E08C858C7019F001115AC29BC265
:1009500097FE10C04C0CFC85F4FF04C08A818133E3
:1009600009F44A94141474F528E0241578F588E005
:10097000482E2CC096FC2AC0812F90E08C159D0536
:100980009CF03CEFC3163FEFD30674F0892D8068CE
:10099000982E0AC0E2E0F0E0EC0FFD1FE10FF11D20
:1009A0008081803319F411501111F4CF97FE0EC0DD
:1009B00044244394410E812F90E0C816D9062CF4AC
:1009C0001C1904C04424439401C010E097FE06C0E3
:1009D0001C141D0434F4C601019605C085E090E0A6
:1009E00002C081E090E001110196112331F0212F26
:1009F00030E02F5F3F4F820F931F252D30E082178D
:100A0000930714F4581A01C0512C892D897049F4A8
:100A1000552039F0B70180E290E00E94240A5A94F0
:100A2000F7CF002329F0B701802F90E00E94240A1D
:100A300093FC09C0552039F0B70180E390E00E9493
:100A4000240A5A94F7CF97FE4CC04601D7FE02C045
:100A5000812C912CC60188199909F301E80FF91F1F
:100A6000FE87ED87960124193109388B2F87012FD6
:100A700010E01195019511093FEF8316930629F4B3
:100A8000B7018EE290E00E94240AC814D9044CF009
:100A90008F8598898815990524F4ED85FE858181D7
:100AA00001C080E3F1E08F1A91082D853E852F5F0C
:100AB0003F4F3E872D87801691062CF0B70190E0BE
:100AC0000E94240AD9CFC814D90441F49A819633DC
:100AD00020F4953319F43C8534FF81E3B70190E0AD
:100AE0004EC08A81813319F09C859F7E9C87B70117
:100AF00090E00E94240A111105C094FC18C085E6FC
:100B000090E017C0B7018EE290E00E94240A1E5FB9
:100B100082E001E0080FF301E80FF11D8081B701C9
:100B200090E00E94240A802F0113F3CFE6CF85E4E2
:100B300090E0B7010E94240AD7FC06C0C114D1047A
:100B400041F4EC85E4FF05C0D194C194D1088DE255
:100B500001C08BE2B70190E00E94240A80E32AE002
:100B6000C216D1042CF08F5FFAE0CF1AD108F7CF6C
:100B7000B70190E00E94240AB701C601C0960E9406
:100B8000240A54C1833631F0833779F0833509F074
:100B900056C020C0560132E0A30EB11CF601808180
:100BA000898301E010E0630112C05601F2E0AF0E4C
:100BB000B11CF601C080D18096FE03C0612F70E0A9
:100BC00002C06FEF7FEFC6010E94190A8C01F92D58
:100BD000FF7714C0560122E0A20EB11CF601C080BE
:100BE000D18096FE03C0612F70E002C06FEF7FEFEF
:100BF000C6010E940E0A8C01F92DF0689F2EF3FDAC
:100C00001AC0852D90E008171907A8F4B70180E2F3
:100C100090E00E94240A5A94F4CFF60197FC859143
:100C200097FE81916F01B70190E00E94240A511054
:100C30005A94015011090115110579F7F7C084364E
:100C400011F0893661F5560197FE09C024E0A20E25
:100C5000B11CF60160817181828193810AC0F2E04A
:100C6000AF0EB11CF60160817181072E000C880B5C
:100C7000990BF92DFF769F2E97FF09C090958095CF
:100C8000709561957F4F8F4F9F4FF0689F2E2AE0A0
:100C900030E0A3010E94820AC82EC6183FC0092D69
:100CA000853721F40F7E2AE030E01DC0097F8F36A2
:100CB00091F018F4883559F0C3C0803719F088379F
:100CC00011F0BEC0006104FF09C0046007C094FEBB
:100CD00008C0066006C028E030E005C020E130E032
:100CE00002C020E132E0560107FF09C084E0A80EEF
:100CF000B11CF601608171818281938108C0F2E0AC
:100D0000AF0EB11CF6016081718180E090E0A3011B
:100D10000E94820AC82EC6180F77902E96FE0BC02E
:100D2000092D0E7FC11650F494FE0AC092FC08C033
:100D3000092D0E7E05C0DC2C092D03C0DC2C01C062
:100D4000D12E04FF0DC0FE01EC0DF11D808180331A
:100D500011F4097E09C002FF06C0D394D39404C0E5
:100D6000802F867809F0D39403FD11C000FF06C0E0
:100D70001C2DD51480F4150D1D190DC0D51458F473
:100D8000B70180E290E00E94240AD394F7CFD514F3
:100D900010F45D1801C0512C04FF10C0B70180E3AE
:100DA00090E00E94240A02FF17C001FD03C088E7FB
:100DB00090E002C088E590E0B7010CC0802F8678F3
:100DC00059F001FF02C08BE201C080E207FD8DE215
:100DD000B70190E00E94240AC11638F4B70180E3FD
:100DE00090E00E94240A1150F7CFCA94F301EC0D51
:100DF000F11D8081B70190E00E94240AC110F5CF57
:100E000015C0F4E0F51560F584E0581A93FE1FC094
:100E1000011127C02C8523FF2AC006E710E0392DD9
:100E20003071932EF8018491811124C0552009F46A
:100E3000E4CCB70180E290E00E94240A5A94F6CFF5
:100E4000F7018681978126C08FEF9FEF23C0B701FE
:100E500080E290E00E94240A5A945110F8CFD8CF33
:100E6000512CB701802F90E00E94240AD3CF0AE7CB
:100E700010E0D5CF91108052B70190E00E94240A73
:100E80000F5F1F4FCFCF23E0251510F483E0BDCFB8
:100E9000512CC0CF6096E2E10C941B095058BB273F
:100EA000AA270E9466070C943E080E94300838F07A
:100EB0000E94370820F039F49F3F19F426F40C946F
:100EC0002D080EF4E095E7FB0C942708E92F0E940B
:100ED0004F0858F3BA17620773078407950720F085
:100EE00079F4A6F50C9471080EF4E0950B2EBA2F48
:100EF000A02D0B01B90190010C01CA01A001112420
:100F0000FF27591B99F0593F50F4503E68F11A16CB
:100F1000F040A22F232F342F4427585FF3CF46955C
:100F200037952795A795F0405395C9F77EF41F167E
:100F3000BA0B620B730B840BBAF09150A1F0FF0F48
:100F4000BB1F661F771F881FC2F70EC0BA0F621F34
:100F5000731F841F48F4879577956795B795F79524
:100F60009E3F08F0B0CF9395880F08F09927EE0FB9
:100F70009795879508950E94570888F09F5798F095
:100F8000B92F9927B751B0F0E1F0660F771F881F8E
:100F9000991F1AF0BA95C9F714C0B13091F00E94A8
:100FA0007108B1E008950C947108672F782F882795
:100FB000B85F39F0B93FCCF3869577956795B395CF
:100FC000D9F73EF490958095709561957F4F8F4F3E
:100FD0009F4F0895E89409C097FB3EF49095809543
:100FE000709561957F4F8F4F9F4F9923A9F0F92FEF
:100FF00096E9BB279395F695879577956795B7956D
:10100000F111F8CFFAF4BB0F11F460FF1BC06F5F52
:101010007F4F8F4F9F4F16C0882311F096E911C064
:10102000772321F09EE8872F762F05C0662371F085
:1010300096E8862F70E060E02AF09A95660F771F99
:10104000881FDAF7880F9695879597F9089597F98D
:101050009F6780E870E060E008959FEF80EC08955E
:1010600000240A9416161706180609060895002487
:101070000A9412161306140605060895092E039401
:10108000000C11F4882352F0BB0F40F4BF2B11F475
:1010900060FF04C06F5F7F4F8F4F9F4F089557FDD4
:1010A0009058440F551F59F05F3F71F04795880FD6
:1010B00097FB991F61F09F3F79F08795089512166D
:1010C00013061406551FF2CF4695F1DF08C0161619
:1010D00017061806991FF1CF8695710561050894CA
:1010E0000895E894BB2766277727CB0197F90895E1
:1010F0000E948B080C943E080E94300838F00E9431
:10110000370820F0952311F00C9427080C942D0833
:1011100011240C9472080E944F0870F3959FC1F33C
:10112000950F50E0551F629FF001729FBB27F00D95
:10113000B11D639FAA27F00DB11DAA1F649F6627EA
:10114000B00DA11D661F829F2227B00DA11D621F39
:10115000739FB00DA11D621F839FA00D611D221FF3
:10116000749F3327A00D611D231F849F600D211DD7
:10117000822F762F6A2F11249F5750409AF0F1F05A
:1011800088234AF0EE0FFF1FBB1F661F771F881FC3
:1011900091505040A9F79E3F510580F00C942708CC
:1011A0000C9472085F3FE4F3983ED4F386957795EC
:1011B0006795B795F795E7959F5FC1F7FE2B880F69
:1011C000911D9695879597F90895AA1BBB1B51E130
:1011D00007C0AA1FBB1FA617B70710F0A61BB70BA7
:1011E000881F991F5A95A9F780959095BC01CD014C
:1011F0000895EE0FFF1F0590F491E02D09942F92B2
:101200003F924F925F926F927F928F929F92AF9296
:10121000BF92CF92DF92EF92FF920F931F93CF93E3
:10122000DF93CDB7DEB7CA1BDB0B0FB6F894DEBF7A
:101230000FBECDBF09942A88398848885F846E84A0
:101240007D848C849B84AA84B984C884DF80EE80EA
:10125000FD800C811B81AA81B981CE0FD11D0FB6F3
:10126000F894DEBF0FBECDBFED010895283008F021
:1012700027E03327DA01990F311D87FD9160009631
:101280006105710539F432602E5F3D9330E32A9594
:10129000E1F708959F3F30F080387105610509F04E
:1012A0003C5F3C5F3D93913008F08068911DDF9377
:1012B000CF931F930F93FF92EF92192F987F9695DC
:1012C000E92F96959695E90FFF27E852FF4F99274A
:1012D0003327EE24FF24A701E70105900894079423
:1012E00028F4360FE71EF81E491F511D660F771FA1
:1012F000881F991F0694A1F70590079428F4E70E1C
:10130000F81E491F561FC11D770F881F991F661FA2
:101310000694A1F70590079428F4F80E491F561F6C
:10132000C71FD11D880F991F661F771F0694A1F74D
:101330000590079420F4490F561FC71FD81F990F17
:10134000661F771F881F0694A9F784911095177060
:1013500041F0D695C79557954795F794E7941A9518
:10136000C1F7EEE7F0E0689415901591359165911D
:10137000959105907FE27395E118F10A430B560BA6
:10138000C90BD009C0F7E10CF11E431F561FC91F3E
:10139000D01D7EF4703311F48A95E6CFE8940150A5
:1013A00030F0080F0AF40027021708F4202F2395C5
:1013B000022F7A3328F079E37D932A95E9F710C05C
:1013C0007D932A9589F60694979567953795179595
:1013D0001794E118F10A430B560BC90BD00998F08A
:1013E00023957E9173957A3308F070E37C932013F4
:1013F000B8F77E9170617D9330F0839571E37D93B2
:1014000070E32A95E1F71124EF90FF900F911F915F
:10141000CF91DF91992787FD90950895FC01059064
:10142000615070400110D8F7809590958E0F9F1FE6
:101430000895FC016150704001900110D8F780952B
:1014400090958E0F9F1F08950F931F93CF93DF9357
:10145000FB01238121FD03C08FEF9FEF2CC022FFF2
:1014600016C046815781248135814217530744F4C1
:10147000A081B1819D012F5F3F4F318320838C93E9
:10148000268137812F5F3F4F3783268314C08B011E
:10149000EC01FB010084F185E02D0995892BE1F633
:1014A000D80116968D919C911797019617969C934B
:1014B0008E931697CE01DF91CF911F910F910895D2
:1014C000AEE0B0E0E6E6FAE00C940D090D891E8965
:1014D00086E08C831A8309838FEF9FE79E838D8339
:1014E000AE01475E5F4F6F89788DCE0101960E94F5
:1014F000D103EF81F885E00FF11F10822E96E4E012
:101500000C942909FA01AA27283051F1203181F1E0
:10151000E8946F936E7F6E5F7F4F8F4F9F4FAF4FFB
:10152000B1E03ED0B4E03CD0670F781F891F9A1F0E
:10153000A11D680F791F8A1F911DA11D6A0F711DC2
:10154000811D911DA11D20D009F468943F912AE0CE
:10155000269F11243019305D3193DEF6CF010895B6
:10156000462F4770405D4193B3E00FD0C9F7F6CFE7
:10157000462F4F70405D4A3318F0495D31FD4052AF
:10158000419302D0A9F7EACFB4E0A6959795879545
:1015900077956795BA95C9F7009761057105089524
:1015A0009B01AC010A2E06945795479537952795D0
:1015B000BA95C9F7620F731F841F951FA01D089568
:0415C000F894FFCFCD
:1015C4002564000D0A566F6C746167653A20000D3E
:1015D4000A43757272656E743A20000D0A414443E1
:0415E4003A200000A9
:00000001FF
